:020000040800F2
:10000000E8040020ED180008A9170008AB17000845
:10001000AD170008AF170008B11700080000000076
:10002000000000000000000000000000B3170008FE
:10003000B517000800000000B7170008B91700083E
:10004000191900081D1900082119000825190008B0
:10005000291900082D190008311900083519000860
:10006000391900083D190008411900084519000810
:10007000491900084D1900085119000855190008C0
:10008000591900085D1900086119000800000000F6
:1000900000000000000000000000000065190008DA
:1000A00069190008BD1700086D19000871190008CA
:1000B000D717000875190008791900087D1900087C
:1000C0008119000885190008891900088D19000890
:1000D00091190008951900089919000800000000FE
:1000E0009D190008A1190008A519000800000000CA
:1000F000000000000000000000000000A919000836
:1001000000000000AD190008B1190008B519000879
:1001100000000000000000000000000000000000DF
:10012000B9190008BD190008C1190008C51900084F
:10013000C9190008000000000000000000000000D5
:10014000000000000000000000000000CD190008C1
:10015000D1190008D5190008D9190008DD190008BF
:10016000E1190008E5190008000000000000000087
:10017000000000000000000000000000000000007F
:1001800000000000E9190008000000000000000065
:10019000ED19000870B5044600250CB9012070BDAA
:1001A00004F13C06706820B9204600F045FAB560BD
:1001B00035707068C10610D4706820F4885040F023
:1001C00002007060204600F090F9B560716821F07F
:1001D000020141F00101716000E001250020307052
:1001E000284670BD38B500F0BCF801D1022032BD00
:1001F00000F0BFF81ED500F095F846BF906820F0DB
:100200000600002000F087F800F09FF806D1816812
:1002100011F0405F0ED100F079F80BE0DFF8C41365
:10022000884202BFDFF8C003026812F0405F01D1CC
:1002300000F092F8002032BD00F13C010A78012A5A
:1002400001D10220704701220A70026893685B089E
:100250005B00936000688268D00705D44A6822F486
:10026000885242F001024A60002008707047F8B5D9
:100270000C46064606F13C05306881684A050AD5F9
:100280008068C10507D5686840F0200068600021DB
:1002900029700120F2BD00F039FA07463068016884
:1002A0008A0710D414F1010FF8D024B100F02EFA0F
:1002B000C01B8442F2D2686840F0040068600021EC
:1002C00029700320F2BD6FF012020260686840F4EA
:1002D000007068603168886810F0405F04BF307E4D
:1002E000002811D1C86A10F4700F02D08868410547
:1002F0000AD4686820F4807068606868C10403D418
:10030000686840F0010068600020F2BD816841F03B
:100310008041816070479060002414706FF022006B
:10032000186070475568DFF8C402054045F48075D1
:1003300055605868440505D5506820F4005040F4D5
:10034000805050605068C40470470868DFF8A012FD
:100350000A6812F01F0F7047016841F08041016088
:1003600070470146002001F13C0200901378012BF8
:1003700070470120107008688368DC0714D4836814
:10038000DFF8704243F001038360DFF86C0203681A
:10039000B3FBF4F404EB4404009402E00098401E24
:1003A000009000980028F9D10B689868C40770473E
:1003B0000068C06C704778B502460020009092F843
:1003C0003C30012B01D1022072BD012082F83C009B
:1003D00007240B6810680A2B11D30A3BC56803EB8E
:1003E000430300F076F8C460C3680D688C68A5F11B
:1003F0000A0606EB4606B4402343C3600FE00569D6
:1004000003EB430304FA03F325EA030303610369DF
:100410000D688C6805EB4505AC40234303611F2440
:100420004B68072B0CD25B1E456B00F050F8446301
:10043000436B4D680C886E1E00F044F843631BE06C
:100440000D2B0CD2DB1F056B00F041F80463036B2E
:100450004D680C88EE1F00F035F803630CE00D3B8F
:10046000C56A00F034F8C462C36A4D680C88A5F10F
:100470000D0600F027F8C3625A4B98421DD10C6854
:100480005B48122C03D1036843F4800303600B68BC
:10049000102B18BF112B10D1036843F40003036025
:1004A0000868102809D15449524C0B68B3FBF4F486
:1004B0000A204443009400F010F8002182F83C1018
:1004C000002072BD06EB8606B4402343704703EB61
:1004D00083039C4025EA0404704702E00098401E14
:1004E000009000980028F9D17047414A116821F422
:1004F00040311160136841680B4313600268536810
:1005000023F4807353605168036941EA0321516009
:10051000516821F040715160536881680B4353600A
:10052000936823F4006393609368C1680B439360FE
:100530003249836A8B4210D0936823F070639360D2
:100540009368816A0B439360936823F040539360F0
:100550009368C16A0B43936007E0916821F0706172
:100560009160916821F040519160916821F0020101
:1005700091609168037E41EA4301916090F82010F8
:10058000002951680CD041F400615160516821F498
:10059000604151605168436A5B1E41EA433101E0AA
:1005A00021F400615160D16A21F47001D162D16AF5
:1005B000C3695B1E41EA0351D162916821F4007165
:1005C0009160916890F8303041EA432191609168E0
:1005D00021F4806191609168406941EA80219160D5
:1005E000704700000020014008200140FEF9FFFF95
:1005F0000423014040420F000C0000200100000FC6
:1006000082B00020009000223B48416841F48041C4
:100610004160416801F480410091009900920368B3
:1006200043F080530360006800F080500090009811
:10063000072002B000F07DB838B586B0044601A8A6
:10064000142100F0CBF824682C4DAC4220D10020BE
:10065000009000222A48416941F48071416141695A
:1006600001F480710091009900920121036843F028
:10067000010303600322006800F00100009000986D
:100680002048019102920021039101A900F0C6F8CF
:1006900007B030BD80B500681B4A174990420ED1A3
:1006A000002000904A6842F001024A600022486837
:1006B00000F01BF8192000F049F8192010E0B0F103
:1006C000804F11D1002000900A6842F001020A60B8
:1006D0000022086800F009F81C2000F037F81C2000
:1006E000BDE8024000F04FB801BD00F001000090ED
:1006F000002100987047000040380240002001406F
:1007000030380240000002400000014001484068CB
:10071000704700BF000000200901020002D42948F0
:1007200081547047284B02F00F021A4402F8041C4F
:100730007047264B19684FF6FF020002114000F483
:10074000E0600843224908431860704738B51F4BE2
:100750001C68C4F30223C3F10704052C28BF04243A
:100760001D1D072D34BF0023DB1E012505FA04F4EF
:10077000641E2140994005FA03F35B1E1A401143A1
:10078000BDE83440C8E7010007D4012200F01F0192
:10079000104B8A40400943F82020704710B5401E96
:1007A000B0F1807F01D3012010BD0B4C60600F21A0
:1007B0004FF0FF30FFF7B0FF0021A160072020605D
:1007C000002010BD00E400E018ED00E00CED00E0BA
:1007D0000000FA0500E100E010E000E0002200F077
:1007E000FBB830B4002513E050F8042BD30744BF06
:1007F000A9F101039A18091F042942F8045BFAD2EF
:1008000013468C0744BF15809B1CC90748BF1D7049
:1008100050F8041B0029E7D130BC70472DE9F84798
:1008200003460C464FF0000863480F21012225685B
:1008300002FA08FC0CEA0509E14540F0AA80656867
:10084000022D18BF122D4FEA880A10D14FEAD805A1
:1008500003EB850E0AF01C06DEF8205001FA06F7BD
:10086000BD43276907FA06F63543CEF820504FEA14
:10087000480E03251E68277905FA0EF5ED4307F0AB
:1008800003072E4007FA0EF73E431E606668012EEE
:1008900018BF022E03D0112E18BF122E10D19E6841
:1008A000E7682E4007FA0EF73E439E605E6826EA30
:1008B0000C076668C6F3001606FA08F63E435E604B
:1008C000DE683540A66806FA0EF63543DD606568D9
:1008D000ED005ED5002500954FEA980C0568374F6E
:1008E00045F4804505600AF00C0A056805F480456A
:1008F0000095009D57F82C6001FA0AF526EA0505D7
:100900002F4EB34208BF002613D02E4EB34208BF6D
:1009100001260ED02C4EB34208BF022609D02B4E22
:10092000B34208BF032604D0294EB3420CBF0426AD
:10093000072606FA0AF6354347F82C506FEA090CE9
:10094000244F3D680CEA050E6568EE0348BF49EA8E
:100950000E0EC7F800E07D680CEA050E6568AE0370
:1009600048BF49EA0E0EC7F804E0BD680CEA050E60
:100970006568EE0248BF49EA0E0EC7F808E0FD6858
:100980000CEA050E6568AD0248BF49EA0E0EC7F8CD
:100990000CE008F10108B8F10F0F7FF648AFBDE891
:1009A000F18702B909048161704742690A408A42AD
:1009B00008BF09048161704744380240083801408B
:1009C000000002400004024000080240000C024007
:1009D00000100240003C014000B500BF13009646E5
:1009E0009446103928BFA0E80C50FAD85FEA417C41
:1009F00028BF0CC048BF40F8042BC90728BF20F807
:100A0000022B48BF00F8012B00BD000038B50400E0
:100A100001D1012032BD00F039F818B900F032F8E8
:100A2000FFF738FE24E00068C16841F00101C160B1
:100A3000816801F00701062903D0016841F0010136
:100A40000160002070470068C16849084900C16022
:100A500041F21112016A114202BF016A40F244429E
:100A6000114203D101684908490001600020704724
:100A700002206870211D206800F00DF901206870C7
:100A8000002032BD002129702046704704F13C054A
:100A90006878704710B50446206801698A0715D543
:100AA000C1688A0712D56FF0020101610122227725
:100AB000806910F0030F204602D000F071F903E0C6
:100AC00000F06FF900F087F80020207720680169B6
:100AD0004A0715D5C1684A0712D56FF004010161B4
:100AE00002222277806910F4407F204602D000F075
:100AF00057F903E000F055F900F06DF80020207779
:100B0000206801690A0715D5C1680A0712D56FF078
:100B10000801016104222277C06910F0030F20460A
:100B200002D000F03DF903E000F03BF900F053F88B
:100B30000020207720680169CA0615D5C168CA0659
:100B400012D56FF01001016108222277C06910F4FC
:100B5000407F204602D000F023F903E000F021F9A5
:100B600000F039F80020207720680169CA0708D50D
:100B7000C168CA0705D56FF001010161204600F088
:100B800011F9206801690A0608D5C1680A0605D569
:100B90006FF080010161204600F005F920680169CD
:100BA0004A0608D5C1684A0605D56FF040010161C3
:100BB000204600F0F9F8206801698A060AD5C16864
:100BC0008A0607D56FF0200101612046BDE810407C
:100BD00000F0EBB810BD204600F0E8B838B500F0E2
:100BE0004EF801D1022032BD012020700222627035
:100BF000DFF81C012A6893680340936008680200CC
:100C000018BF10282DD0202818BF302829D0402800
:100C100023D0502816D0602818D0702803D0B0F503
:100C2000005F07D021E000F025F82868816841F0D6
:100C3000770105E000F01EF82868816841F48041E2
:100C4000816012E000F012F850210BE0CA68496898
:100C5000286800F07EF8602104E000F007F84021E9
:100C600000E00146286800F086F80EE0CA6849688E
:100C700028685FE0CB684A688968286883E0054691
:100C800005F13C04207801287047012060700021A4
:100C90002170002032BDF0B51E4B04681E4D1F4E62
:100CA0001F4F984218BFB0F1804F04D0B8421CBF0C
:100CB000B042A8420CD14A6824F070041443984210
:100CC00018BFB0F1804F0ED0B84218BFB0420AD062
:100CD000A8421CBF134A904205D0134DA8421CBF26
:100CE000124A904203D1CA6824F4407414434A69FA
:100CF00024F080041443046098428C68C4620A683B
:100D0000826202D109690A4A116001234361F0BD80
:100D10008800FFFF00000140000C00400008004078
:100D200000040040004001400044014000480140F0
:100D30003000014010B5036A046A6408640004626C
:100D400023F00A03846924F0F00444EA0214846165
:100D500023E010B5036A23F0100303628369046A79
:100D600023F4704343EA023324F0A004836144EA8D
:100D70000114046210BD826822F07002114341F038
:100D800007018160704710B5846824F47F442143D3
:100D9000114341EA0321816010BD1943016210BD76
:100DA0007047704770477047704770477047000042
:100DB0002DE9F8432DED028B86B000F097F900F095
:100DC0001AF901A81421FFF709FD002000904FF443
:100DD0008057BA48DFF8E8820168BA4D41F08001D7
:100DE000016005F13006026802F0800200920022E4
:100DF000009900922021036843F00103036040F250
:100E0000CF74006800F00100009005F18C09009893
:100E100000F0EAF8202101910122002103910491C0
:100E2000029201A94046FFF7F9FC684600F0E0F89D
:100E3000A54828600021A548A86269600120E861F2
:100E40006861A9602961297685F82010E962E96066
:100E500031702846FFF79EF9002001210090019192
:100E6000029069462846FFF7A6FA00F0C0F800BFD6
:100E70009AA09749D0E900234CF24F303062F161DB
:100E8000CDE9002342F20F700021B0627162F1627D
:100E90003163716305F14C00FFF7B8FD029702A9B9
:100EA00005F14C00FFF79AFE00210091019105F138
:100EB0004C00694600F034F900F099F889A24FF02F
:100EC0008043D2E90001CDE9000141F287300021E1
:100ED000F36530667166B466F16671674846FFF780
:100EE00095FD029702A94846FFF778FE0021009180
:100EF00001914846694600F013F99FED6B8A05F1B0
:100F0000CC071AE04846FFF79EFD002200F06BF880
:100F100000200DE005F14C00FFF795FDF169002080
:100F200048624846FFF78FFD012200F05CF801207F
:100F300030764FF47A7000F013F92846FFF752F933
:100F40004FF0FF312846FFF792F92846FFF730FAB5
:100F500038602846FFF770F997ED000AB8EE400AAE
:100F60009FED521A20EE080ADFED510A20EE200A0A
:100F7000B4EE410AF1EE10FA87ED010A0FD5F06DDB
:100F8000C4624846FFF74FFDF0696FF0010101614F
:100F90000022426205F14C00FFF745FDB8E7DFEDA6
:100FA000450AB4EE600AF1EE10FAABDB05F14C0035
:100FB00000F06CF8F1EE040AB4EE600AF1EE10FAFB
:100FC000A8D5307E0028A5D1F06D40F2E731C1628E
:100FD0004846FFF728FD05F14C00FFF734FDF169A5
:100FE00000204862A5E720214046FFF7DABC02A8AE
:100FF0001021FFF7F3BB80B592B006A83021FFF7B0
:10100000EDFB01A81421FFF7E9FB00200090314817
:10101000016841F0805101600021006800F08050BB
:10102000009000982C4800910221026822F440426E
:1010300042F4004202600122006800F44040009047
:1010400000980691099210210A91022200210C9227
:101050000D91082250210E920F9102220721109229
:10106000119106A800F090F802210291A0220392AB
:101070000F204FF48051019004910022059200212D
:1010800001A800F0FDF913B000BD00000068416A3E
:10109000806A401C414300EE101AB8EEC00ADFED32
:1010A000060A80EE200A70470000803900808944DB
:1010B00000404E45018009458096184B303802406B
:1010C0000000024010000020002001400100000F3D
:1010D0000000014040380240007000400000000065
:1010E00000000000000000000000000080B50B4878
:1010F000016841F400710160026842F4806202609C
:10110000016841F4807101600320FFF712FB0020A9
:1011100000F074FAFFF774FA002002BD003C0240B0
:1011200070B500F13C031A78012A01D1022070BD8C
:1011300001221A7002245C7004686568A6684A6817
:10114000096825F070050D43656026F0800600688B
:1011500016438660012159700020187070BD000090
:1011600038B50446FFF7D2FA14F1010F054602D054
:10117000044801786418FFF7C9FA401BA042FAD36B
:1011800031BD00BF000000202DE9F843040017D056
:101190002078B74EC10745D5B06800F00C00042890
:1011A00007D0B06800F00C0008280BD1706841022D
:1011B00008D53068810335D56068002840F0BA80D2
:1011C000012053E16068B0F5803F04D1306840F4FD
:1011D0008030306011E0B0F5A02F306806D140F4C7
:1011E00080203060316841F4803105E020F48030A7
:1011F0003060316821F480213160606868B1FFF7A8
:1012000085FA05463068810300F19480FFF77EFA85
:10121000401B6528F6D3032028E1FFF777FA05463F
:101220003068810340F18680FFF770FA401B652823
:10123000F6D3F0E7FFF76AFA401B022840F2A780D6
:10124000E9E7E06870B101213960FFF75FFA054610
:101250003068810700F1CB80FFF758FA401B022865
:10126000F6D9D8E73860FFF751FA054631688807A4
:1012700063D5FFF74BFA401B0228F7D9CBE708608C
:10128000FFF744FA0546706F810775D5FFF73EFA00
:10129000401B0228F7D9BEE70528306F06D140F081
:1012A00004003067306F40F0010005E04008400066
:1012B0003067306F20F00400306741F28938A06851
:1012C00068B1FFF723FA8146306F810700F19C80F7
:1012D000FFF71CFAA0EB09004045F5D39BE7FFF7A9
:1012E00015FA8146306F810740F18E80FFF70EFAC4
:1012F000A0EB09004045F5D38DE7FFF707FA401B47
:10130000022840F2968086E7FFF700FA001B0228C9
:1013100040F2A7807FE700203866FFF7F7F9044620
:101320003068810140F1A180FFF7F0F9001B02282D
:10133000F6D970E720784F4F81071BD5B06810F0C1
:101340000C0F09D0B06800F00C0008287FF479AFCA
:10135000706841023FF575AF3068810703D5E068DA
:1013600001287FF42DAF3168206921F0F80141EAAE
:10137000C0013160217808070DD560693E49002819
:101380003FF47DAF01220A60FFF7C0F90546706F98
:1013900081077FF54FAF207841073AD5306C0025A3
:1013A000C1000AD400950125316C41F080513164AF
:1013B000306C00F0805000900098DFF8C080D8F8C2
:1013C0000000C1051BD4D8F8000040F48070C8F8B4
:1013D0000000FFF79BF98146D8F80000C1050ED444
:1013E000FFF794F9A0EB09000228F5D913E730685C
:1013F000216920F0F80040EAC1003060BAE7A06837
:1014000001287FF449AF4DE71DB1306C20F08050CA
:101410003064A06948B3B16801F00C0108293FF4B9
:10142000CFAE02287FF477AF00203866FFF76EF961
:101430000546306881013FF560AFE269206A616A64
:101440000243A06A400842EA8112401E42EA00427A
:10145000E06A42EA0062726001213966FFF756F9DC
:101460000446306881017FF54FAF0020BDE8F2836C
:101470000038024000004742800E474200700040A2
:101480002DE9F04104000F4677D0404E306800F05F
:101490000F00B84202D200F072F86ED120683C4DC5
:1014A000810712D5400703D5A96841F4E051A9602E
:1014B0002078010703D5A86840F46040A860A968B7
:1014C000A06821F0F0010143A9602178C8074CD53C
:1014D0006068012802D129688A0305E0022818BF44
:1014E000032803D129688A0103D446E029688A07C2
:1014F00043D5A968890840EA8100A860FFF706F98A
:101500008046A868616800F00C00B0EB810F2CD019
:10151000FFF7FCF8A0EB080041F289318842F0D3D4
:10152000032020E02078410705D5AA68E06822F46E
:10153000E0520243AA602178080706D5A96820690D
:1015400021F4604141EAC001A96000F027F8AA68CF
:101550001049114BC2F30312895CC8401860002087
:1015600000F04CF80020BDE8F081306800F00F007A
:101570008742D7D200F003F8D4D00120F3E73770C8
:10158000316801F00F01B94270470000003C024091
:1015900000380240981700080C00002030B5144CA9
:1015A000606800F00C00042802D0082802D01DE07A
:1015B000104830BD226820680023410202F03F023B
:1015C00004D525680B49C5F3881003E020680A4953
:1015D000C0F38810A1FB000100F030F82168C1F3CE
:1015E0000141491C4900B0FBF1F030BD024830BD5B
:1015F0000438024000127A000024F40038B50D4D82
:101600000D4B2A7804464FF47A711868B1FBF2F258
:10161000B0FBF2F0FFF7C2F850B9102C08D200224C
:1016200021464FF0FF30FFF791F8AC60002032BD4B
:10163000012032BD000000200C000020D3BBD9B136
:10164000B2F5803F5BD2022A1ED98C46B1FBF2F183
:1016500002FB11C31B0443EA1043B3FBF2FC02FB81
:101660001C3380B240EA0343B3FBF2F002FB1032BA
:1016700040EA0C4000237047022A05D98446B0FB9B
:10168000F2F002FB10C270474AB105D100F001022E
:1016900049085FEA3000704700220023704700F0DD
:1016A00051B80B000200002100207047F7D3002240
:1016B00000237047904271EB030CF2D370B5B1FA7E
:1016C00081F4B3FA83F52C1BA340C4F1200532FA50
:1016D00005F63343A2405FF00046E64002E05B08B7
:1016E0005FEA3202841A71EB030524BF20462946C3
:1016F0007641F4D302000B003000002170BD70B5BC
:10170000B1FA81F4B2FA82F5C4F120046419B4F19B
:101710002006DAD3B2405FF00044F440002502E036
:1017200052085FEA3303C61A71EB020E24BF30463B
:10173000714664416D41F3D302000B002000290083
:1017400070BD0000704700000E48016841F4700150
:10175000016000220C49086840F0010008608A60BE
:101760000B680A480A4A03400B604A6000200B6875
:10177000084A23F480230B60C8604FF000611160B9
:101780007047000088ED00E000380240FFFFF6FEE1
:101790001030002408ED00E0000000000000000010
:1017A00001020304060708097047FEE7FEE7FEE7AB
:1017B000FEE770477047704700F01EB810B50B4C3D
:1017C0002046FFF740F92068002141622046BDE82D
:1017D0001040FFF75FB980B520210548FFF7E5F815
:1017E000BDE802400348FFF755B900005C00002047
:1017F000000002409C0000200248416802788A18DC
:10180000426070470000002030B450F8041B79B1EA
:101810000268436802440830DC0744BFA9F10104B0
:10182000E31852F8045B43F8045B091FF9D1ECE7B5
:1018300030BC704710B5074979441831064C7C44D8
:10184000163404E00A68081D114488470146A14285
:10185000F8D110BD2C0000004C0000004EF688515D
:10186000CEF20001086840F470000860BFF34F8FAB
:10187000BFF36F8F4FF00070E1EE100A7047000069
:1018800063EFFFFFD4000000100000200000000004
:1018900079FFFFFF1000000064000000000000203E
:1018A0000000000000F00DF8002801D0FFF7C2FF93
:1018B000AFF300800020AFF30080FFF779FA00F06B
:1018C00002F80120704700F001B8000007463846D2
:1018D00000F002F8FBE7000080B5AFF30080024A99
:1018E00011001820ABBEFBE726000200014880472C
:1018F00001480047491700080D19000801000000C1
:1019000000000000100000000024F400AFF300808D
:10191000FFF7A4FFFFF7C6FFFFF7FEBFFFF7FEBF0D
:10192000FFF7FEBFFFF7FEBFFFF7FEBFFFF7FEBFEB
:10193000FFF7FEBFFFF7FEBFFFF7FEBFFFF7FEBFDB
:10194000FFF7FEBFFFF7FEBFFFF7FEBFFFF7FEBFCB
:10195000FFF7FEBFFFF7FEBFFFF7FEBFFFF7FEBFBB
:10196000FFF7FEBFFFF7FEBFFFF7FEBFFFF7FEBFAB
:10197000FFF7FEBFFFF7FEBFFFF7FEBFFFF7FEBF9B
:10198000FFF7FEBFFFF7FEBFFFF7FEBFFFF7FEBF8B
:10199000FFF7FEBFFFF7FEBFFFF7FEBFFFF7FEBF7B
:1019A000FFF7FEBFFFF7FEBFFFF7FEBFFFF7FEBF6B
:1019B000FFF7FEBFFFF7FEBFFFF7FEBFFFF7FEBF5B
:1019C000FFF7FEBFFFF7FEBFFFF7FEBFFFF7FEBF4B
:1019D000FFF7FEBFFFF7FEBFFFF7FEBFFFF7FEBF3B
:1019E000FFF7FEBFFFF7FEBFFFF7FEBFFFF7FEBF2B
:040000050800190DC9
:00000001FF
